:100000000C942A000C943F000C943F000C943F0089
:100010000C943F000C943F000C943F000C943F0064
:100020000C943F000C943F000C943F000C943F0054
:100030000C943F000C943F000C943F000C943F0044
:100040000C943F000C943F000C943F000C943F0034
:100050000C943F0011241FBECFE5D8E0DEBFCDBF1A
:1000600010E0A0E6B0E0ECE6F3E002C005900D92EF
:10007000A037B107D9F70E9468010C94B4010C9421
:10008000000010B88CE080B9089584EA86BF06B6F7
:1000900007FEFDCF81B1887F8830F1F7089583B9DD
:1000A00084E886BF06B607FEFDCF81B1887F883120
:1000B000F1F7089583B984E886BF06B607FEFDCF41
:1000C00081B1887F8832F1F7089584E986BF06B64A
:1000D00004FEFDCF0895613029F4E82FF0E08FEFA2
:1000E00081830895E82FF0E011820895413069F48A
:1000F000E82FF0E0218181E090E002C0880F991F95
:100100006A95E2F7822B81830895E82FF0E0218140
:1001100081E090E002C0880F991F6A95E2F7809510
:10012000822381830895E82FF0E0828121E030E08E
:1001300002C0220F331F6A95E2F7282B228308950D
:10014000E82FF0E0828121E030E002C0220F331F6F
:100150006A95E2F72095282322830895E82FF0E09E
:1001600062830895CF93C82F60E089E30E94A000C6
:100170006C2F607F86E30E94AE0061E089E30E94FD
:10018000930082E08A95F1F700C061E089E30E9464
:10019000A00087EC90E00197F1F700C000006C2F01
:1001A0006295607F86E30E94AE0061E089E30E9471
:1001B000930092E09A95F1F700C061E089E30E9414
:1001C000A00087EC90E00197F1F700C00000CF910C
:1001D000089561E086E30E946B0041E060E089E3FE
:1001E0000E94760041E061E089E30E94760060E0D1
:1001F00086E30E94AE0061E089E30E94A0008FE9DF
:100200009FE00197F1F700C0000083E30E94B20075
:1002100082E30E94B20088E20E94B2008EE00E9457
:10022000B20081E00E94B2008FE99FE00197F1F7F0
:1002300000C0000086E00E94B2000895CF93C82F4E
:1002400060E089E30E9493006C2F607F86E30E9448
:10025000AE0061E089E30E94930082E08A95F1F7A5
:1002600000C061E089E30E94A00087EC90E0019764
:10027000F1F700C000006C2F6295607F86E30E945A
:10028000AE0061E089E30E94930092E09A95F1F755
:1002900000C061E089E30E94A00087EC90E0019734
:1002A000F1F700C00000CF9108950F931F93CF93F3
:1002B0008C01C0E003C00E941E01CF5FF801EC0F6B
:1002C000F11D80818111F7CFCF911F910F9108957A
:1002D0001F93CF93DF930E94E9000E9441008FE1BA
:1002E0009EE40197F1F700C0000080E690E00E94D4
:1002F00055018FE19EE40197F1F700C0000010E086
:1003000026C00E9445008FE19EE40197F1F700C0EE
:10031000000080E20E944F008FE19EE40197F1F718
:1003200000C0000088810E945A0083B10E941E0113
:100330008FE19EE40197F1F700C000000E94650084
:100340008FE19EE40197F1F700C000001F5FC12F0D
:10035000D0E0C759DF4F88818111D3CF80E090E092
:0C036000DF91CF911F910895F894FFCF1A
:10036C004D41535445523A20004D4F4841420000F4
:00000001FF
